{
  "address": "0x0018898eCcABcB7c77C8445ec782BCDb47AeBdd5",
  "abi": [
    {
      "inputs": [
        {
          "internalType": "string",
          "name": "nftName",
          "type": "string"
        },
        {
          "internalType": "string",
          "name": "nftSymbol",
          "type": "string"
        },
        {
          "internalType": "string",
          "name": "_baseuri",
          "type": "string"
        },
        {
          "internalType": "address",
          "name": "registry",
          "type": "address"
        }
      ],
      "stateMutability": "nonpayable",
      "type": "constructor"
    },
    {
      "anonymous": false,
      "inputs": [
        {
          "indexed": true,
          "internalType": "address",
          "name": "owner",
          "type": "address"
        },
        {
          "indexed": true,
          "internalType": "address",
          "name": "approved",
          "type": "address"
        },
        {
          "indexed": true,
          "internalType": "uint256",
          "name": "tokenId",
          "type": "uint256"
        }
      ],
      "name": "Approval",
      "type": "event"
    },
    {
      "anonymous": false,
      "inputs": [
        {
          "indexed": true,
          "internalType": "address",
          "name": "owner",
          "type": "address"
        },
        {
          "indexed": true,
          "internalType": "address",
          "name": "operator",
          "type": "address"
        },
        {
          "indexed": false,
          "internalType": "bool",
          "name": "approved",
          "type": "bool"
        }
      ],
      "name": "ApprovalForAll",
      "type": "event"
    },
    {
      "anonymous": false,
      "inputs": [
        {
          "indexed": true,
          "internalType": "address",
          "name": "from",
          "type": "address"
        },
        {
          "indexed": true,
          "internalType": "address",
          "name": "to",
          "type": "address"
        },
        {
          "indexed": true,
          "internalType": "uint256",
          "name": "tokenId",
          "type": "uint256"
        }
      ],
      "name": "Transfer",
      "type": "event"
    },
    {
      "inputs": [
        {
          "internalType": "address",
          "name": "x",
          "type": "address"
        }
      ],
      "name": "_addressToString",
      "outputs": [
        {
          "internalType": "string",
          "name": "",
          "type": "string"
        }
      ],
      "stateMutability": "pure",
      "type": "function"
    },
    {
      "inputs": [
        {
          "internalType": "address",
          "name": "to",
          "type": "address"
        },
        {
          "internalType": "uint256",
          "name": "tokenId",
          "type": "uint256"
        }
      ],
      "name": "approve",
      "outputs": [],
      "stateMutability": "nonpayable",
      "type": "function"
    },
    {
      "inputs": [
        {
          "internalType": "address",
          "name": "owner",
          "type": "address"
        }
      ],
      "name": "balanceOf",
      "outputs": [
        {
          "internalType": "uint256",
          "name": "",
          "type": "uint256"
        }
      ],
      "stateMutability": "view",
      "type": "function"
    },
    {
      "inputs": [
        {
          "internalType": "bytes1",
          "name": "b",
          "type": "bytes1"
        }
      ],
      "name": "char",
      "outputs": [
        {
          "internalType": "bytes1",
          "name": "c",
          "type": "bytes1"
        }
      ],
      "stateMutability": "pure",
      "type": "function"
    },
    {
      "inputs": [
        {
          "internalType": "uint256",
          "name": "tokenId",
          "type": "uint256"
        }
      ],
      "name": "getApproved",
      "outputs": [
        {
          "internalType": "address",
          "name": "",
          "type": "address"
        }
      ],
      "stateMutability": "view",
      "type": "function"
    },
    {
      "inputs": [],
      "name": "getNftTableId",
      "outputs": [
        {
          "internalType": "uint256",
          "name": "",
          "type": "uint256"
        }
      ],
      "stateMutability": "view",
      "type": "function"
    },
    {
      "inputs": [],
      "name": "getNftTableName",
      "outputs": [
        {
          "internalType": "string",
          "name": "",
          "type": "string"
        }
      ],
      "stateMutability": "view",
      "type": "function"
    },
    {
      "inputs": [],
      "name": "getTokenCounter",
      "outputs": [
        {
          "internalType": "uint256",
          "name": "",
          "type": "uint256"
        }
      ],
      "stateMutability": "view",
      "type": "function"
    },
    {
      "inputs": [
        {
          "internalType": "address",
          "name": "owner",
          "type": "address"
        },
        {
          "internalType": "address",
          "name": "operator",
          "type": "address"
        }
      ],
      "name": "isApprovedForAll",
      "outputs": [
        {
          "internalType": "bool",
          "name": "",
          "type": "bool"
        }
      ],
      "stateMutability": "view",
      "type": "function"
    },
    {
      "inputs": [
        {
          "internalType": "address",
          "name": "nftOwner",
          "type": "address"
        }
      ],
      "name": "mint",
      "outputs": [
        {
          "internalType": "uint256",
          "name": "",
          "type": "uint256"
        }
      ],
      "stateMutability": "nonpayable",
      "type": "function"
    },
    {
      "inputs": [],
      "name": "name",
      "outputs": [
        {
          "internalType": "string",
          "name": "",
          "type": "string"
        }
      ],
      "stateMutability": "view",
      "type": "function"
    },
    {
      "inputs": [
        {
          "internalType": "uint256",
          "name": "tokenId",
          "type": "uint256"
        }
      ],
      "name": "ownerOf",
      "outputs": [
        {
          "internalType": "address",
          "name": "",
          "type": "address"
        }
      ],
      "stateMutability": "view",
      "type": "function"
    },
    {
      "inputs": [
        {
          "internalType": "address",
          "name": "from",
          "type": "address"
        },
        {
          "internalType": "address",
          "name": "to",
          "type": "address"
        },
        {
          "internalType": "uint256",
          "name": "tokenId",
          "type": "uint256"
        }
      ],
      "name": "safeTransferFrom",
      "outputs": [],
      "stateMutability": "nonpayable",
      "type": "function"
    },
    {
      "inputs": [
        {
          "internalType": "address",
          "name": "from",
          "type": "address"
        },
        {
          "internalType": "address",
          "name": "to",
          "type": "address"
        },
        {
          "internalType": "uint256",
          "name": "tokenId",
          "type": "uint256"
        },
        {
          "internalType": "bytes",
          "name": "data",
          "type": "bytes"
        }
      ],
      "name": "safeTransferFrom",
      "outputs": [],
      "stateMutability": "nonpayable",
      "type": "function"
    },
    {
      "inputs": [
        {
          "internalType": "address",
          "name": "operator",
          "type": "address"
        },
        {
          "internalType": "bool",
          "name": "approved",
          "type": "bool"
        }
      ],
      "name": "setApprovalForAll",
      "outputs": [],
      "stateMutability": "nonpayable",
      "type": "function"
    },
    {
      "inputs": [
        {
          "internalType": "bytes4",
          "name": "interfaceId",
          "type": "bytes4"
        }
      ],
      "name": "supportsInterface",
      "outputs": [
        {
          "internalType": "bool",
          "name": "",
          "type": "bool"
        }
      ],
      "stateMutability": "view",
      "type": "function"
    },
    {
      "inputs": [],
      "name": "symbol",
      "outputs": [
        {
          "internalType": "string",
          "name": "",
          "type": "string"
        }
      ],
      "stateMutability": "view",
      "type": "function"
    },
    {
      "inputs": [
        {
          "internalType": "uint256",
          "name": "tokenId",
          "type": "uint256"
        }
      ],
      "name": "tokenURI",
      "outputs": [
        {
          "internalType": "string",
          "name": "",
          "type": "string"
        }
      ],
      "stateMutability": "view",
      "type": "function"
    },
    {
      "inputs": [
        {
          "internalType": "address",
          "name": "from",
          "type": "address"
        },
        {
          "internalType": "address",
          "name": "to",
          "type": "address"
        },
        {
          "internalType": "uint256",
          "name": "tokenId",
          "type": "uint256"
        }
      ],
      "name": "transferFrom",
      "outputs": [],
      "stateMutability": "nonpayable",
      "type": "function"
    }
  ],
  "transactionHash": "0xe9098d9dcf06ab0851aa3998280fa2cb6b87c8deeea03bf8e00962756537d39e",
  "args": [
    "WillChange",
    "GREEN",
    "https://ABCD789123.revise.link/",
    "0x4b48841d4b32c4650e4abc117a03fe8b51f38f68"
  ],
  "numDeployments": 1,
  "solcInputHash": "9761d74bad777a215aa68d59c87eae03",
  "bytecode": "0x60a06040819052600060808190526200001b9160079162000322565b506040805180820190915260088082526739b4b3b6b0ba37b960c11b60209092019182526200004d91600a9162000322565b503480156200005b57600080fd5b50604051620021e2380380620021e28339810160408190526200007e91620004a2565b8351849084906200009790600090602085019062000322565b508051620000ad90600190602084019062000322565b50508251620000c59150600790602085019062000322565b50600b80546001600160a01b0319166001600160a01b038316908117909155633a9151b030600a620001034662000205602090811b620009af17901c565b6040516020016200011692919062000634565b6040516020818303038152906040526040518363ffffffff1660e01b815260040162000144929190620006e8565b6020604051808303816000875af115801562000164573d6000803e3d6000fd5b505050506040513d601f19601f820116820180604052508101906200018a91906200072c565b600881905550600a620001a8466200020560201b620009af1760201c565b620001c06008546200020560201b620009af1760201c565b604051602001620001d49392919062000746565b60405160208183030381529060405260099080519060200190620001fa92919062000322565b50505050506200085e565b6060816200022a5750506040805180820190915260018152600360fc1b602082015290565b8160005b81156200025a57806200024181620007b1565b9150620002529050600a83620007e5565b91506200022e565b6000816001600160401b03811115620002775762000277620003c8565b6040519080825280601f01601f191660200182016040528015620002a2576020820181803683370190505b5090505b84156200031a57620002ba600183620007fc565b9150620002c9600a8662000816565b620002d69060306200082d565b60f81b818381518110620002ee57620002ee62000848565b60200101906001600160f81b031916908160001a90535062000312600a86620007e5565b9450620002a6565b949350505050565b828054620003309062000555565b90600052602060002090601f0160209004810192826200035457600085556200039f565b82601f106200036f57805160ff19168380011785556200039f565b828001600101855582156200039f579182015b828111156200039f57825182559160200191906001019062000382565b50620003ad929150620003b1565b5090565b5b80821115620003ad5760008155600101620003b2565b634e487b7160e01b600052604160045260246000fd5b60005b83811015620003fb578181015183820152602001620003e1565b838111156200040b576000848401525b50505050565b600082601f8301126200042357600080fd5b81516001600160401b0380821115620004405762000440620003c8565b604051601f8301601f19908116603f011681019082821181831017156200046b576200046b620003c8565b816040528381528660208588010111156200048557600080fd5b62000498846020830160208901620003de565b9695505050505050565b60008060008060808587031215620004b957600080fd5b84516001600160401b0380821115620004d157600080fd5b620004df8883890162000411565b95506020870151915080821115620004f657600080fd5b620005048883890162000411565b945060408701519150808211156200051b57600080fd5b506200052a8782880162000411565b606087015190935090506001600160a01b03811681146200054a57600080fd5b939692955090935050565b600181811c908216806200056a57607f821691505b602082108114156200058c57634e487b7160e01b600052602260045260246000fd5b50919050565b8054600090600181811c9080831680620005ad57607f831692505b6020808410821415620005d057634e487b7160e01b600052602260045260246000fd5b818015620005e75760018114620005f95762000628565b60ff1986168952848901965062000628565b60008881526020902060005b86811015620006205781548b82015290850190830162000605565b505084890196505b50505050505092915050565b6c021a922a0aa22902a20a126229609d1b8152600062000658600d83018562000592565b605f60f81b8152835162000674816001840160208801620003de565b7f2028696420696e7465676572207072696d617279206b65792c20757365724164600192909101918201527f64726573732074657874204e4f54204e554c4c2c20746f6b656e496420696e7460218201526e65676572204e4f54204e554c4c293b60881b6041820152605001949350505050565b60018060a01b0383168152604060208201526000825180604084015262000717816060850160208701620003de565b601f01601f1916919091016060019392505050565b6000602082840312156200073f57600080fd5b5051919050565b600062000754828662000592565b605f60f81b808252855162000771816001850160208a01620003de565b600192019182015283516200078e816002840160208801620003de565b0160020195945050505050565b634e487b7160e01b600052601160045260246000fd5b6000600019821415620007c857620007c86200079b565b5060010190565b634e487b7160e01b600052601260045260246000fd5b600082620007f757620007f7620007cf565b500490565b6000828210156200081157620008116200079b565b500390565b600082620008285762000828620007cf565b500690565b600082198211156200084357620008436200079b565b500190565b634e487b7160e01b600052603260045260246000fd5b611974806200086e6000396000f3fe608060405234801561001057600080fd5b50600436106101215760003560e01c80636a627842116100ad57806395d89b411161007157806395d89b4114610267578063a22cb4651461026f578063b88d4fde14610282578063c87b56dd14610295578063e985e9c5146102a857600080fd5b80636a627842146102105780636e02007d1461023157806370a0823114610239578063750e6fde1461024c57806388e9a48a1461025457600080fd5b806323b872dd116100f457806323b872dd146101a357806342842e0e146101b65780636352211e146101c957806366a8cd47146101dc57806369f9ad2f146101e457600080fd5b806301ffc9a71461012657806306fdde031461014e578063081812fc14610163578063095ea7b31461018e575b600080fd5b610139610134366004611133565b6102bb565b60405190151581526020015b60405180910390f35b61015661030d565b60405161014591906111a8565b6101766101713660046111bb565b61039f565b6040516001600160a01b039091168152602001610145565b6101a161019c3660046111eb565b6103c6565b005b6101a16101b1366004611215565b6104e1565b6101a16101c4366004611215565b610512565b6101766101d73660046111bb565b61052d565b61015661058d565b6101f76101f2366004611251565b61059c565b6040516001600160f81b03199091168152602001610145565b61022361021e36600461127b565b6105d7565b604051908152602001610145565b600654610223565b61022361024736600461127b565b6106e5565b600854610223565b61015661026236600461127b565b61076b565b6101566108d4565b6101a161027d366004611296565b6108e3565b6101a16102903660046112e8565b6108f2565b6101566102a33660046111bb565b61092a565b6101396102b63660046113c4565b610981565b60006001600160e01b031982166380ac58cd60e01b14806102ec57506001600160e01b03198216635b5e139f60e01b145b8061030757506301ffc9a760e01b6001600160e01b03198316145b92915050565b60606000805461031c906113f7565b80601f0160208091040260200160405190810160405280929190818152602001828054610348906113f7565b80156103955780601f1061036a57610100808354040283529160200191610395565b820191906000526020600020905b81548152906001019060200180831161037857829003601f168201915b5050505050905090565b60006103aa82610ab5565b506000908152600460205260409020546001600160a01b031690565b60006103d18261052d565b9050806001600160a01b0316836001600160a01b031614156104445760405162461bcd60e51b815260206004820152602160248201527f4552433732313a20617070726f76616c20746f2063757272656e74206f776e656044820152603960f91b60648201526084015b60405180910390fd5b336001600160a01b038216148061046057506104608133610981565b6104d25760405162461bcd60e51b815260206004820152603e60248201527f4552433732313a20617070726f76652063616c6c6572206973206e6f7420746f60448201527f6b656e206f776e6572206e6f7220617070726f76656420666f7220616c6c0000606482015260840161043b565b6104dc8383610b17565b505050565b6104eb3382610b85565b6105075760405162461bcd60e51b815260040161043b90611432565b6104dc838383610be3565b6104dc838383604051806020016040528060008152506108f2565b6000818152600260205260408120546001600160a01b0316806103075760405162461bcd60e51b8152602060048201526018602482015277115490cdcc8c4e881a5b9d985b1a59081d1bdad95b88125160421b604482015260640161043b565b60606009805461031c906113f7565b6000600a60f883901c10156105c3576105ba60f883901c6030611496565b60f81b92915050565b6105ba60f883901c6057611496565b919050565b60006105e2826106e5565b156106245760405162461bcd60e51b815260206004820152601260248201527113919508185b1c9958591e481b5a5b9d195960721b604482015260640161043b565b6006546106328160016114bb565b60065561063f8382610d7f565b600b546008546001600160a01b039091169063eaf5d04e90309060096106648861076b565b61066d876109af565b60405160200161067f939291906114ef565b6040516020818303038152906040526040518463ffffffff1660e01b81526004016106ac9392919061160e565b600060405180830381600087803b1580156106c657600080fd5b505af11580156106da573d6000803e3d6000fd5b509295945050505050565b60006001600160a01b03821661074f5760405162461bcd60e51b815260206004820152602960248201527f4552433732313a2061646472657373207a65726f206973206e6f7420612076616044820152683634b21037bbb732b960b91b606482015260840161043b565b506001600160a01b031660009081526003602052604090205490565b60408051602880825260608281019093526000919060208201818036833701905050905060005b60148110156108ab5760006107a882601361163e565b6107b3906008611655565b6107be906002611758565b6107d1906001600160a01b03871661177a565b60f81b9050600060108260f81c6107e8919061178e565b60f81b905060008160f81c60106107ff91906117b0565b8360f81c61080d91906117d1565b60f81b905061081b8261059c565b85610827866002611655565b81518110610837576108376117f4565b60200101906001600160f81b031916908160001a9053506108578161059c565b85610863866002611655565b61086e9060016114bb565b8151811061087e5761087e6117f4565b60200101906001600160f81b031916908160001a90535050505080806108a39061180a565b915050610792565b50806040516020016108bd9190611825565b604051602081830303815290604052915050919050565b60606001805461031c906113f7565b6108ee338383610d99565b5050565b6108fc3383610b85565b6109185760405162461bcd60e51b815260040161043b90611432565b61092484848484610e68565b50505050565b606061093582610ab5565b600061093f610e9b565b9050600081511161095f576040518060200160405280600081525061097a565b80610969846109af565b6040516020016108bd92919061184f565b9392505050565b6001600160a01b03918216600090815260056020908152604080832093909416825291909152205460ff1690565b6060816109d35750506040805180820190915260018152600360fc1b602082015290565b8160005b81156109fd57806109e78161180a565b91506109f69050600a8361177a565b91506109d7565b60008167ffffffffffffffff811115610a1857610a186112d2565b6040519080825280601f01601f191660200182016040528015610a42576020820181803683370190505b5090505b8415610aad57610a5760018361163e565b9150610a64600a8661187e565b610a6f9060306114bb565b60f81b818381518110610a8457610a846117f4565b60200101906001600160f81b031916908160001a905350610aa6600a8661177a565b9450610a46565b949350505050565b6000818152600260205260409020546001600160a01b0316610b145760405162461bcd60e51b8152602060048201526018602482015277115490cdcc8c4e881a5b9d985b1a59081d1bdad95b88125160421b604482015260640161043b565b50565b600081815260046020526040902080546001600160a01b0319166001600160a01b0384169081179091558190610b4c8261052d565b6001600160a01b03167f8c5be1e5ebec7d5bd14f71427d1e84f3dd0314c0f7b2291e5b200ac8c7c3b92560405160405180910390a45050565b600080610b918361052d565b9050806001600160a01b0316846001600160a01b03161480610bb85750610bb88185610981565b80610aad5750836001600160a01b0316610bd18461039f565b6001600160a01b031614949350505050565b826001600160a01b0316610bf68261052d565b6001600160a01b031614610c5a5760405162461bcd60e51b815260206004820152602560248201527f4552433732313a207472616e736665722066726f6d20696e636f72726563742060448201526437bbb732b960d91b606482015260840161043b565b6001600160a01b038216610cbc5760405162461bcd60e51b8152602060048201526024808201527f4552433732313a207472616e7366657220746f20746865207a65726f206164646044820152637265737360e01b606482015260840161043b565b610cc7600082610b17565b6001600160a01b0383166000908152600360205260408120805460019290610cf090849061163e565b90915550506001600160a01b0382166000908152600360205260408120805460019290610d1e9084906114bb565b909155505060008181526002602052604080822080546001600160a01b0319166001600160a01b0386811691821790925591518493918716917fddf252ad1be2c89b69c2b068fc378daa952ba7f163c4a11628f55a4df523b3ef91a4505050565b6108ee828260405180602001604052806000815250610eaa565b816001600160a01b0316836001600160a01b03161415610dfb5760405162461bcd60e51b815260206004820152601960248201527f4552433732313a20617070726f766520746f2063616c6c657200000000000000604482015260640161043b565b6001600160a01b03838116600081815260056020908152604080832094871680845294825291829020805460ff191686151590811790915591519182527f17307eab39ab6107e8899845ad3d59bd9653f200f220920489ca2b5937696c31910160405180910390a3505050565b610e73848484610be3565b610e7f84848484610edd565b6109245760405162461bcd60e51b815260040161043b90611892565b60606007805461031c906113f7565b610eb48383610fdb565b610ec16000848484610edd565b6104dc5760405162461bcd60e51b815260040161043b90611892565b60006001600160a01b0384163b15610fd057604051630a85bd0160e11b81526001600160a01b0385169063150b7a0290610f219033908990889088906004016118e4565b6020604051808303816000875af1925050508015610f5c575060408051601f3d908101601f19168201909252610f5991810190611921565b60015b610fb6573d808015610f8a576040519150601f19603f3d011682016040523d82523d6000602084013e610f8f565b606091505b508051610fae5760405162461bcd60e51b815260040161043b90611892565b805181602001fd5b6001600160e01b031916630a85bd0160e11b149050610aad565b506001949350505050565b6001600160a01b0382166110315760405162461bcd60e51b815260206004820181905260248201527f4552433732313a206d696e7420746f20746865207a65726f2061646472657373604482015260640161043b565b6000818152600260205260409020546001600160a01b0316156110965760405162461bcd60e51b815260206004820152601c60248201527f4552433732313a20746f6b656e20616c7265616479206d696e74656400000000604482015260640161043b565b6001600160a01b03821660009081526003602052604081208054600192906110bf9084906114bb565b909155505060008181526002602052604080822080546001600160a01b0319166001600160a01b03861690811790915590518392907fddf252ad1be2c89b69c2b068fc378daa952ba7f163c4a11628f55a4df523b3ef908290a45050565b6001600160e01b031981168114610b1457600080fd5b60006020828403121561114557600080fd5b813561097a8161111d565b60005b8381101561116b578181015183820152602001611153565b838111156109245750506000910152565b60008151808452611194816020860160208601611150565b601f01601f19169290920160200192915050565b60208152600061097a602083018461117c565b6000602082840312156111cd57600080fd5b5035919050565b80356001600160a01b03811681146105d257600080fd5b600080604083850312156111fe57600080fd5b611207836111d4565b946020939093013593505050565b60008060006060848603121561122a57600080fd5b611233846111d4565b9250611241602085016111d4565b9150604084013590509250925092565b60006020828403121561126357600080fd5b81356001600160f81b03198116811461097a57600080fd5b60006020828403121561128d57600080fd5b61097a826111d4565b600080604083850312156112a957600080fd5b6112b2836111d4565b9150602083013580151581146112c757600080fd5b809150509250929050565b634e487b7160e01b600052604160045260246000fd5b600080600080608085870312156112fe57600080fd5b611307856111d4565b9350611315602086016111d4565b925060408501359150606085013567ffffffffffffffff8082111561133957600080fd5b818701915087601f83011261134d57600080fd5b81358181111561135f5761135f6112d2565b604051601f8201601f19908116603f01168101908382118183101715611387576113876112d2565b816040528281528a60208487010111156113a057600080fd5b82602086016020830137600060208483010152809550505050505092959194509250565b600080604083850312156113d757600080fd5b6113e0836111d4565b91506113ee602084016111d4565b90509250929050565b600181811c9082168061140b57607f821691505b6020821081141561142c57634e487b7160e01b600052602260045260246000fd5b50919050565b6020808252602e908201527f4552433732313a2063616c6c6572206973206e6f7420746f6b656e206f776e6560408201526d1c881b9bdc88185c1c1c9bdd995960921b606082015260800190565b634e487b7160e01b600052601160045260246000fd5b600060ff821660ff84168060ff038211156114b3576114b3611480565b019392505050565b600082198211156114ce576114ce611480565b500190565b600081516114e5818560208601611150565b9290920192915050565b6b024a729a2a92a1024a72a27960a51b81526000600c6000865481600182811c91508083168061152057607f831692505b602080841082141561154057634e487b7160e01b86526022600452602486fd5b81801561155457600181146115695761159a565b60ff1986168a890152848a018801965061159a565b60008d81526020902060005b868110156115905781548c82018b0152908501908301611575565b505087858b010196505b507f202875736572416464726573732c20746f6b656e4964292056414c55455320288652602760f81b8682015250505050506115d960218201876114d3565b9150506115eb8162272c2760e81b9052565b6115f860038201856114d3565b6227293b60e81b81526003019695505050505050565b60018060a01b0384168152826020820152606060408201526000611635606083018461117c565b95945050505050565b60008282101561165057611650611480565b500390565b600081600019048311821515161561166f5761166f611480565b500290565b600181815b808511156116af57816000190482111561169557611695611480565b808516156116a257918102915b93841c9390800290611679565b509250929050565b6000826116c657506001610307565b816116d357506000610307565b81600181146116e957600281146116f35761170f565b6001915050610307565b60ff84111561170457611704611480565b50506001821b610307565b5060208310610133831016604e8410600b8410161715611732575081810a610307565b61173c8383611674565b806000190482111561175057611750611480565b029392505050565b600061097a83836116b7565b634e487b7160e01b600052601260045260246000fd5b60008261178957611789611764565b500490565b600060ff8316806117a1576117a1611764565b8060ff84160491505092915050565b600060ff821660ff84168160ff048111821515161561175057611750611480565b600060ff821660ff8416808210156117eb576117eb611480565b90039392505050565b634e487b7160e01b600052603260045260246000fd5b600060001982141561181e5761181e611480565b5060010190565b61060f60f31b815260008251611842816002850160208701611150565b9190910160020192915050565b60008351611861818460208801611150565b835190830190611875818360208801611150565b01949350505050565b60008261188d5761188d611764565b500690565b60208082526032908201527f4552433732313a207472616e7366657220746f206e6f6e20455243373231526560408201527131b2b4bb32b91034b6b83632b6b2b73a32b960711b606082015260800190565b6001600160a01b03858116825284166020820152604081018390526080606082018190526000906119179083018461117c565b9695505050505050565b60006020828403121561193357600080fd5b815161097a8161111d56fea2646970667358221220968b1ce440394d3b2e9b1387ba79511832ce8d241df94b95b9eb91c9527fb10864736f6c634300080c0033",
  "devdoc": {
    "kind": "dev",
    "methods": {
      "approve(address,uint256)": {
        "details": "See {IERC721-approve}."
      },
      "balanceOf(address)": {
        "details": "See {IERC721-balanceOf}."
      },
      "getApproved(uint256)": {
        "details": "See {IERC721-getApproved}."
      },
      "isApprovedForAll(address,address)": {
        "details": "See {IERC721-isApprovedForAll}."
      },
      "name()": {
        "details": "See {IERC721Metadata-name}."
      },
      "ownerOf(uint256)": {
        "details": "See {IERC721-ownerOf}."
      },
      "safeTransferFrom(address,address,uint256)": {
        "details": "See {IERC721-safeTransferFrom}."
      },
      "safeTransferFrom(address,address,uint256,bytes)": {
        "details": "See {IERC721-safeTransferFrom}."
      },
      "setApprovalForAll(address,bool)": {
        "details": "See {IERC721-setApprovalForAll}."
      },
      "supportsInterface(bytes4)": {
        "details": "See {IERC165-supportsInterface}."
      },
      "symbol()": {
        "details": "See {IERC721Metadata-symbol}."
      },
      "tokenURI(uint256)": {
        "details": "See {IERC721Metadata-tokenURI}."
      },
      "transferFrom(address,address,uint256)": {
        "details": "See {IERC721-transferFrom}."
      }
    },
    "version": 1
  },
  "userdoc": {
    "kind": "user",
    "methods": {},
    "version": 1
  },
  "storageLayout": {
    "storage": [
      {
        "astId": 292,
        "contract": "contracts/SigmatorClimateNFT.sol:SigmatorClimateNFT",
        "label": "_name",
        "offset": 0,
        "slot": "0",
        "type": "t_string_storage"
      },
      {
        "astId": 294,
        "contract": "contracts/SigmatorClimateNFT.sol:SigmatorClimateNFT",
        "label": "_symbol",
        "offset": 0,
        "slot": "1",
        "type": "t_string_storage"
      },
      {
        "astId": 298,
        "contract": "contracts/SigmatorClimateNFT.sol:SigmatorClimateNFT",
        "label": "_owners",
        "offset": 0,
        "slot": "2",
        "type": "t_mapping(t_uint256,t_address)"
      },
      {
        "astId": 302,
        "contract": "contracts/SigmatorClimateNFT.sol:SigmatorClimateNFT",
        "label": "_balances",
        "offset": 0,
        "slot": "3",
        "type": "t_mapping(t_address,t_uint256)"
      },
      {
        "astId": 306,
        "contract": "contracts/SigmatorClimateNFT.sol:SigmatorClimateNFT",
        "label": "_tokenApprovals",
        "offset": 0,
        "slot": "4",
        "type": "t_mapping(t_uint256,t_address)"
      },
      {
        "astId": 312,
        "contract": "contracts/SigmatorClimateNFT.sol:SigmatorClimateNFT",
        "label": "_operatorApprovals",
        "offset": 0,
        "slot": "5",
        "type": "t_mapping(t_address,t_mapping(t_address,t_bool))"
      },
      {
        "astId": 2455,
        "contract": "contracts/SigmatorClimateNFT.sol:SigmatorClimateNFT",
        "label": "s_tokenCounter",
        "offset": 0,
        "slot": "6",
        "type": "t_uint256"
      },
      {
        "astId": 2458,
        "contract": "contracts/SigmatorClimateNFT.sol:SigmatorClimateNFT",
        "label": "baseuri",
        "offset": 0,
        "slot": "7",
        "type": "t_string_storage"
      },
      {
        "astId": 2460,
        "contract": "contracts/SigmatorClimateNFT.sol:SigmatorClimateNFT",
        "label": "_nftTableId",
        "offset": 0,
        "slot": "8",
        "type": "t_uint256"
      },
      {
        "astId": 2462,
        "contract": "contracts/SigmatorClimateNFT.sol:SigmatorClimateNFT",
        "label": "_nftTableName",
        "offset": 0,
        "slot": "9",
        "type": "t_string_storage"
      },
      {
        "astId": 2465,
        "contract": "contracts/SigmatorClimateNFT.sol:SigmatorClimateNFT",
        "label": "_prefix",
        "offset": 0,
        "slot": "10",
        "type": "t_string_storage"
      },
      {
        "astId": 2468,
        "contract": "contracts/SigmatorClimateNFT.sol:SigmatorClimateNFT",
        "label": "_tableland",
        "offset": 0,
        "slot": "11",
        "type": "t_contract(ITablelandTables)2166"
      }
    ],
    "types": {
      "t_address": {
        "encoding": "inplace",
        "label": "address",
        "numberOfBytes": "20"
      },
      "t_bool": {
        "encoding": "inplace",
        "label": "bool",
        "numberOfBytes": "1"
      },
      "t_contract(ITablelandTables)2166": {
        "encoding": "inplace",
        "label": "contract ITablelandTables",
        "numberOfBytes": "20"
      },
      "t_mapping(t_address,t_bool)": {
        "encoding": "mapping",
        "key": "t_address",
        "label": "mapping(address => bool)",
        "numberOfBytes": "32",
        "value": "t_bool"
      },
      "t_mapping(t_address,t_mapping(t_address,t_bool))": {
        "encoding": "mapping",
        "key": "t_address",
        "label": "mapping(address => mapping(address => bool))",
        "numberOfBytes": "32",
        "value": "t_mapping(t_address,t_bool)"
      },
      "t_mapping(t_address,t_uint256)": {
        "encoding": "mapping",
        "key": "t_address",
        "label": "mapping(address => uint256)",
        "numberOfBytes": "32",
        "value": "t_uint256"
      },
      "t_mapping(t_uint256,t_address)": {
        "encoding": "mapping",
        "key": "t_uint256",
        "label": "mapping(uint256 => address)",
        "numberOfBytes": "32",
        "value": "t_address"
      },
      "t_string_storage": {
        "encoding": "bytes",
        "label": "string",
        "numberOfBytes": "32"
      },
      "t_uint256": {
        "encoding": "inplace",
        "label": "uint256",
        "numberOfBytes": "32"
      }
    }
  }
}